:10000000BDEF03F00000000000EF00F00000000072
:0A0010000000000000000000F3D71C
:0A001C00070E0D6E0D2EFED7120028
:10002600086A096A100E0C6E013408360936045047
:10003600085E0550D8A0053C095ED8B007D004502C
:1000460008260550D8B0053C0926D890003601365A
:060056000C2EEAD7120097
:10005C00C26A070EC012C08EA2C000F0003600901B
:10006C00003600900050C212C280D2DFC282C2A2FF
:10007C0001D0FDD7C4CF01F0006AC3500012000EAE
:06008C000112C2901200F7
:1000920000016B6B050E6B5D0AE26B516925E16E27
:1000A200000E6A21E26E200EE66E6B2BF3D76B51C7
:1000B2006925E16E000E6A21E26EE66A6B076B51FA
:1000C20069256C6F000E6A216D6F0A0E046E000EB8
:1000D200056E67C000F068C001F0A4DF08C000F040
:1000E20009C001F0300E00266CC0E1FF6DC0E2FFD6
:1000F20000C0E6FF0A0E046E000E056E67C000F037
:1001020068C001F08FDF00C067F001C068F0000E28
:10011200011802E1000E001801E102D06B07CFD7EF
:020122001200C9
:0E012400ACB202D00000FCD767C0ADFF1200E5
:1001320000019C6B9D6B9E6B9F6B0001800E9F1953
:10014200006E800E005C02E1190E9E5D6AE20B0EEB
:10015200A26F83DF040E0C6EE40E0D6E0D2EFED721
:100162000C2EFCD700009AC000F09BC001F00036B4
:1001720000900136680E00240001A06F000E0120DD
:10018200A16F67C0A2F069DFA0C0E1FFA1C0E2FFDA
:1001920000C0E6FF01C0E6FF9AC000F09BC001F07C
:1001A200003600900136680E0024E96E000E012030
:1001B200EA6EEECF01F0EECF02F0000E006E0250BA
:1001C200005C02E101500A082BE29AC000F09BC0D9
:1001D20001F0003600900136680E0024E96E000E30
:1001E2000120EA6EEECF01F0EECF02F0030E025CC8
:1001F20002E1840E015C14E29AC000F09BC001F09F
:10020200003600900136680E0024E96E000E0120CF
:10021200EA6EEE5000019C27EE509D239E4B9F2BD1
:100222008CD7190E046E000E056E9CC000F09DC0A6
:0E02320001F0F8DE00C09CF001C09DF012004B
:100240004D50000A16E1818A819C82908292818EB3
:100250008098060E0B6E130E0C6EAD0E0D6E0D2EED
:10026000FED70C2EFCD70B2EFAD700000000818A97
:10027000818C4D50010A16E1819A818C8290829284
:10028000818E8098060E0B6E130E0C6EAD0E0D6EE9
:100290000D2EFED70C2EFCD70B2EFAD70000000037
:1002A000818A818C4D50020A16E1818A819C82905C
:1002B0008292819E8088060E0B6E130E0C6EAD0E20
:1002C0000D6E0D2EFED70C2EFCD70B2EFAD700008C
:1002D0000000818A818C4D50030A16E1819A818C3D
:1002E00082908292819E8088060E0B6E130E0C6E99
:1002F000AD0E0D6E0D2EFED70C2EFCD70B2EFAD7A1
:0A03000000000000818A818C1200C9
:10030A000001626B636B000E646F040E656F666BAF
:10031A00676B0ADF00C051F001C052F0010E000104
:10032A00676F02DF00C053F001C054F0020E0001F3
:10033A00676FFADE00C055F001C056F0030E0001E7
:10034A00676FF2DE00C057F001C058F0080E0001D6
:10035A00676FEADE00C059F001C05AF0090E0001C9
:10036A00676FE2DE00C05BF001C05CF00A0E0001BC
:10037A00676FDADE00C05DF001C05EF00C0E0001AE
:10038A00676FD2DE00C05FF001C060F00001616BF0
:10039A00080E615D2EE261C000F0000E016E0036AB
:1003AA0000900136510E0024E96E000E0120EA6E1B
:1003BA00EECF01F0EECF02F0800E6319006E800ED0
:1003CA000218005C02E10150625D11E261C000F0B6
:1003DA00000E016E003600900136510E0024E96EBF
:1003EA00000E0120EA6EEECF62F0EECF63F0612BD1
:1003FA00CFD7616B080E615D30E261C000F0000E7C
:10040A00016E003600900136510E0024E96E000E8E
:10041A000120EA6EEECF01F0EECF02F0800E021854
:10042A00006E800E6519005C02E16451015C13E202
:10043A0061C000F0000E016E003600900136510EC8
:10044A000024E96E000E0120EA6EEECF64F0EECFD2
:10045A0065F061C066F0612BCDD76451625D4F6E65
:10046A0065516359506E66C000F0000E016E003689
:10047A000090013600504D24E96E01504E20EA6E7C
:10048A006451EE5C016E6551EE58026E000E006E0C
:10049A000250005C02E10150460803E2010E006EC0
:1004AA0001D0006A00C04FF0000E506E4F5050103D
:0E04BA0003E066C000F002D0370E006E1200A4
:1004C800240E316E010E326E670E336E000E346EDE
:1004D800FF0E296EFF0E2A6E000E2B6E000E2C6E7C
:1004E800FF0E2D6EFF0E2E6E000E2F6E000E306E5C
:1004F800FF0E256EFF0E266E000E276E000E286E6C
:10050800AC8A900EAB6E948E949C9EAA03D0AECF0C
:0605180000F0FBD7120009
:10051E00939A939C94909492939E9298819A819C94
:0A052E0082908292819E8098120054
:100538000900F5CFE6FF0006FBE10106F9E112002C
:10054800536A546A4DC055F04EC056F0800E4E188E
:10055800006E800E005C02E1000E4D5C0BE2010EA5
:10056800536E000E546E4D500008556E4EC056F036
:10057800000E565655C067F056C068F04FC069F077
:1005880050C06AF082DD060E516E000E526E000EEB
:10059800006E5250005C02E15150000819E25150BF
:1005A8004F24E16E52505020E26E010E515C006EF5
:1005B800000E5258016E00504F24E96E0150502031
:1005C800EA6EEECFE6FF010E515E000E525ADFD7FB
:1005D8004FC0E1FF50C0E2FF200EE66E53505410AA
:1005E8001AE0516A526A51504F24E96E5250502015
:1005F800EA6EEE50200A03E1514A522AF4D7010E5E
:10060800515E000E525A51504F24E16E5250502004
:08061800E26E2D0EE66E1200E9
:10062000506A4DC0E9FF4EC0EAFFEECF4FF04F5089
:10063000000A0DE04FC067F075DD502A50504D2480
:10064000E96E000E4E20EA6EEECF4FF0F0D71200AA
:10065000819A818C82808292819E8098030E0B6E9B
:100660008A0E0C6E550E0D6E0D2EFED70C2EFCD77D
:100670000B2EFAD70000000082908282819E809823
:10068000030E0B6E8A0E0C6E550E0D6E0D2EFED7E0
:100690000C2EFCD70B2EFAD700000000829082921D
:1006A000818E8098030E0B6E8A0E0C6E550E0D6EA9
:1006B0000D2EFED70C2EFCD70B2EFAD70000000013
:1006C00082908292819E8088030E0B6E8A0E0C6E41
:1006D000550E0D6E0D2EFED70C2EFCD70B2EFAD715
:1006E00000000000819C818A82808292819E809895
:1006F000030E0B6E8A0E0C6E550E0D6E0D2EFED770
:100700000C2EFCD70B2EFAD70000000082908282BC
:10071000819E8098030E0B6E8A0E0C6E550E0D6E28
:100720000D2EFED70C2EFCD70B2EFAD700000000A2
:1007300082908292818E8098030E0B6E8A0E0C6ED0
:10074000550E0D6E0D2EFED70C2EFCD70B2EFAD7A4
:100750000000000082908292819E8088030E0B6EC2
:100760008A0E0C6E550E0D6E0D2EFED70C2EFCD77C
:0A0770000B2EFAD700000000120063
:10077A0051EC04F0CFDE67DFB886B06A670EAF6E61
:10078A00AC849DDE1F0E4D6E000E4E6E44DF0001DE
:10079A00676BCADC00C03DF001C03EF0010E0001EB
:1007AA00676FC2DC00C03FF001C040F0020E0001DA
:1007BA00676FBADC00C041F001C042F0030E0001CD
:1007CA00676FB2DC00C043F001C044F0080E0001BC
:1007DA00676FAADC00C045F001C046F0090E0001AF
:1007EA00676FA2DC00C047F001C048F00A0E0001A2
:1007FA00676F9ADC00C049F001C04AF00C0E000194
:10080A00676F92DC00C04BF001C04CF0150E4D6EC4
:10081A00000E4E6E00DF020E0001676F85DC00C01D
:10082A004DF001C04EF0350E4F6E000E506E87DE51
:10083A00350E4D6E000E4E6EEEDE0D0E0001676F28
:10084A006CDC1A0E4D6E000E4E6EE5DE3D0E4D6EE0
:10085A00000E4E6E55DD00C03CF000C04DF0000E9B
:10086A004E6E350E4F6E000E506E69DE350E4D6EB1
:10087A00000E4E6ED0DE0D0E0001676F4EDC3CC0DE
:08088A004DF0D9DCC3D7FFD704
:1008A20010EE15F0100E006E010E016E920EF66E35
:0E08B200080EF76E000EF86E9CEC02F01200BD
:0508920070696E3D00DD
:0508970070696E3D00D8
:06089C0068656C6C6F0042
:020000040030CA
:0E00000000001F1EFF8381FF0FC00FE00F40A6
:00000001FF
